{
  "contractName": "Voting",
  "abi": [
    {
      "inputs": [],
      "stateMutability": "nonpayable",
      "type": "constructor"
    },
    {
      "anonymous": false,
      "inputs": [],
      "name": "ElectionEnded",
      "type": "event"
    },
    {
      "anonymous": false,
      "inputs": [
        {
          "indexed": false,
          "internalType": "address",
          "name": "voter",
          "type": "address"
        },
        {
          "indexed": false,
          "internalType": "uint256",
          "name": "candidateId",
          "type": "uint256"
        }
      ],
      "name": "Voted",
      "type": "event"
    },
    {
      "inputs": [
        {
          "internalType": "uint256",
          "name": "",
          "type": "uint256"
        }
      ],
      "name": "candidates",
      "outputs": [
        {
          "internalType": "uint256",
          "name": "id",
          "type": "uint256"
        },
        {
          "internalType": "string",
          "name": "name",
          "type": "string"
        },
        {
          "internalType": "uint256",
          "name": "voteCount",
          "type": "uint256"
        }
      ],
      "stateMutability": "view",
      "type": "function"
    },
    {
      "inputs": [],
      "name": "candidatesCount",
      "outputs": [
        {
          "internalType": "uint256",
          "name": "",
          "type": "uint256"
        }
      ],
      "stateMutability": "view",
      "type": "function"
    },
    {
      "inputs": [],
      "name": "electionEnded",
      "outputs": [
        {
          "internalType": "bool",
          "name": "",
          "type": "bool"
        }
      ],
      "stateMutability": "view",
      "type": "function"
    },
    {
      "inputs": [],
      "name": "electionOfficial",
      "outputs": [
        {
          "internalType": "address",
          "name": "",
          "type": "address"
        }
      ],
      "stateMutability": "view",
      "type": "function"
    },
    {
      "inputs": [
        {
          "internalType": "address",
          "name": "",
          "type": "address"
        }
      ],
      "name": "voters",
      "outputs": [
        {
          "internalType": "bool",
          "name": "",
          "type": "bool"
        }
      ],
      "stateMutability": "view",
      "type": "function"
    },
    {
      "inputs": [
        {
          "internalType": "string",
          "name": "name",
          "type": "string"
        }
      ],
      "name": "addCandidate",
      "outputs": [],
      "stateMutability": "nonpayable",
      "type": "function"
    },
    {
      "inputs": [
        {
          "internalType": "uint256",
          "name": "candidateId",
          "type": "uint256"
        }
      ],
      "name": "vote",
      "outputs": [],
      "stateMutability": "nonpayable",
      "type": "function"
    },
    {
      "inputs": [],
      "name": "endElection",
      "outputs": [],
      "stateMutability": "nonpayable",
      "type": "function"
    },
    {
      "inputs": [],
      "name": "getWinner",
      "outputs": [
        {
          "internalType": "string",
          "name": "",
          "type": "string"
        }
      ],
      "stateMutability": "view",
      "type": "function"
    }
  ],
  "bytecode": "0x60806040525f8060146101000a81548160ff021916908315150217905550348015610028575f80fd5b50335f806101000a81548173ffffffffffffffffffffffffffffffffffffffff021916908373ffffffffffffffffffffffffffffffffffffffff1602179055506111a4806100755f395ff3fe608060405234801561000f575f80fd5b5060043610610091575f3560e01c806359f784681161006457806359f784681461011d5780638e7ea5b214610127578063a3ec138d14610145578063ad39b7eb14610175578063c94ca9e31461019357610091565b80630121b93f146100955780632d35a8a2146100b15780633477ee2e146100cf578063462e91ec14610101575b5f80fd5b6100af60048036038101906100aa9190610850565b6101b1565b005b6100b9610394565b6040516100c6919061088a565b60405180910390f35b6100e960048036038101906100e49190610850565b61039a565b6040516100f89392919061092d565b60405180910390f35b61011b60048036038101906101169190610a95565b610446565b005b610125610597565b005b61012f61066c565b60405161013c9190610adc565b60405180910390f35b61015f600480360381019061015a9190610b56565b6107ba565b60405161016c9190610b9b565b60405180910390f35b61017d6107d7565b60405161018a9190610bc3565b60405180910390f35b61019b6107fa565b6040516101a89190610b9b565b60405180910390f35b5f60149054906101000a900460ff1615610200576040517f08c379a00000000000000000000000000000000000000000000000000000000081526004016101f790610c26565b60405180910390fd5b60035f3373ffffffffffffffffffffffffffffffffffffffff1673ffffffffffffffffffffffffffffffffffffffff1681526020019081526020015f205f9054906101000a900460ff161561028a576040517f08c379a000000000000000000000000000000000000000000000000000000000815260040161028190610c8e565b60405180910390fd5b5f8111801561029b57506001548111155b6102da576040517f08c379a00000000000000000000000000000000000000000000000000000000081526004016102d190610cf6565b60405180910390fd5b600160035f3373ffffffffffffffffffffffffffffffffffffffff1673ffffffffffffffffffffffffffffffffffffffff1681526020019081526020015f205f6101000a81548160ff02191690831515021790555060025f8281526020019081526020015f206002015f81548092919061035390610d41565b91905055507f4d99b957a2bc29a30ebd96a7be8e68fe50a3c701db28a91436490b7d53870ca43382604051610389929190610d88565b60405180910390a150565b60015481565b6002602052805f5260405f205f91509050805f0154908060010180546103bf90610ddc565b80601f01602080910402602001604051908101604052809291908181526020018280546103eb90610ddc565b80156104365780601f1061040d57610100808354040283529160200191610436565b820191905f5260205f20905b81548152906001019060200180831161041957829003601f168201915b5050505050908060020154905083565b5f8054906101000a900473ffffffffffffffffffffffffffffffffffffffff1673ffffffffffffffffffffffffffffffffffffffff163373ffffffffffffffffffffffffffffffffffffffff16146104d3576040517f08c379a00000000000000000000000000000000000000000000000000000000081526004016104ca90610e7c565b60405180910390fd5b5f60149054906101000a900460ff1615610522576040517f08c379a000000000000000000000000000000000000000000000000000000000815260040161051990610c26565b60405180910390fd5b60015f81548092919061053490610d41565b9190505550604051806060016040528060015481526020018281526020015f81525060025f60015481526020019081526020015f205f820151815f015560208201518160010190816105869190611037565b506040820151816002015590505050565b5f8054906101000a900473ffffffffffffffffffffffffffffffffffffffff1673ffffffffffffffffffffffffffffffffffffffff163373ffffffffffffffffffffffffffffffffffffffff1614610624576040517f08c379a000000000000000000000000000000000000000000000000000000000815260040161061b90610e7c565b60405180910390fd5b60015f60146101000a81548160ff0219169083151502179055507f66ec723071e4bb646f7b35d31bc2dee8510979bd8c180edd0690d4f5e802f1e460405160405180910390a1565b60605f60149054906101000a900460ff166106bc576040517f08c379a00000000000000000000000000000000000000000000000000000000081526004016106b390611150565b60405180910390fd5b5f8080600190505b6001548111610717578260025f8381526020019081526020015f206002015411156107045760025f8281526020019081526020015f206002015492508091505b808061070f90610d41565b9150506106c4565b5060025f8281526020019081526020015f20600101805461073790610ddc565b80601f016020809104026020016040519081016040528092919081815260200182805461076390610ddc565b80156107ae5780601f10610785576101008083540402835291602001916107ae565b820191905f5260205f20905b81548152906001019060200180831161079157829003601f168201915b50505050509250505090565b6003602052805f5260405f205f915054906101000a900460ff1681565b5f8054906101000a900473ffffffffffffffffffffffffffffffffffffffff1681565b5f60149054906101000a900460ff1681565b5f604051905090565b5f80fd5b5f80fd5b5f819050919050565b61082f8161081d565b8114610839575f80fd5b50565b5f8135905061084a81610826565b92915050565b5f6020828403121561086557610864610815565b5b5f6108728482850161083c565b91505092915050565b6108848161081d565b82525050565b5f60208201905061089d5f83018461087b565b92915050565b5f81519050919050565b5f82825260208201905092915050565b5f5b838110156108da5780820151818401526020810190506108bf565b5f8484015250505050565b5f601f19601f8301169050919050565b5f6108ff826108a3565b61090981856108ad565b93506109198185602086016108bd565b610922816108e5565b840191505092915050565b5f6060820190506109405f83018661087b565b818103602083015261095281856108f5565b9050610961604083018461087b565b949350505050565b5f80fd5b5f80fd5b7f4e487b71000000000000000000000000000000000000000000000000000000005f52604160045260245ffd5b6109a7826108e5565b810181811067ffffffffffffffff821117156109c6576109c5610971565b5b80604052505050565b5f6109d861080c565b90506109e4828261099e565b919050565b5f67ffffffffffffffff821115610a0357610a02610971565b5b610a0c826108e5565b9050602081019050919050565b828183375f83830152505050565b5f610a39610a34846109e9565b6109cf565b905082815260208101848484011115610a5557610a5461096d565b5b610a60848285610a19565b509392505050565b5f82601f830112610a7c57610a7b610969565b5b8135610a8c848260208601610a27565b91505092915050565b5f60208284031215610aaa57610aa9610815565b5b5f82013567ffffffffffffffff811115610ac757610ac6610819565b5b610ad384828501610a68565b91505092915050565b5f6020820190508181035f830152610af481846108f5565b905092915050565b5f73ffffffffffffffffffffffffffffffffffffffff82169050919050565b5f610b2582610afc565b9050919050565b610b3581610b1b565b8114610b3f575f80fd5b50565b5f81359050610b5081610b2c565b92915050565b5f60208284031215610b6b57610b6a610815565b5b5f610b7884828501610b42565b91505092915050565b5f8115159050919050565b610b9581610b81565b82525050565b5f602082019050610bae5f830184610b8c565b92915050565b610bbd81610b1b565b82525050565b5f602082019050610bd65f830184610bb4565b92915050565b7f456c656374696f6e2068617320656e64656400000000000000000000000000005f82015250565b5f610c106012836108ad565b9150610c1b82610bdc565b602082019050919050565b5f6020820190508181035f830152610c3d81610c04565b9050919050565b7f416c726561647920766f746564000000000000000000000000000000000000005f82015250565b5f610c78600d836108ad565b9150610c8382610c44565b602082019050919050565b5f6020820190508181035f830152610ca581610c6c565b9050919050565b7f496e76616c69642063616e6469646174650000000000000000000000000000005f82015250565b5f610ce06011836108ad565b9150610ceb82610cac565b602082019050919050565b5f6020820190508181035f830152610d0d81610cd4565b9050919050565b7f4e487b71000000000000000000000000000000000000000000000000000000005f52601160045260245ffd5b5f610d4b8261081d565b91507fffffffffffffffffffffffffffffffffffffffffffffffffffffffffffffffff8203610d7d57610d7c610d14565b5b600182019050919050565b5f604082019050610d9b5f830185610bb4565b610da8602083018461087b565b9392505050565b7f4e487b71000000000000000000000000000000000000000000000000000000005f52602260045260245ffd5b5f6002820490506001821680610df357607f821691505b602082108103610e0657610e05610daf565b5b50919050565b7f4f6e6c7920656c656374696f6e206f6666696369616c2063616e20706572666f5f8201527f726d207468697320616374696f6e000000000000000000000000000000000000602082015250565b5f610e66602e836108ad565b9150610e7182610e0c565b604082019050919050565b5f6020820190508181035f830152610e9381610e5a565b9050919050565b5f819050815f5260205f209050919050565b5f6020601f8301049050919050565b5f82821b905092915050565b5f60088302610ef67fffffffffffffffffffffffffffffffffffffffffffffffffffffffffffffffff82610ebb565b610f008683610ebb565b95508019841693508086168417925050509392505050565b5f819050919050565b5f610f3b610f36610f318461081d565b610f18565b61081d565b9050919050565b5f819050919050565b610f5483610f21565b610f68610f6082610f42565b848454610ec7565b825550505050565b5f90565b610f7c610f70565b610f87818484610f4b565b505050565b5b81811015610faa57610f9f5f82610f74565b600181019050610f8d565b5050565b601f821115610fef57610fc081610e9a565b610fc984610eac565b81016020851015610fd8578190505b610fec610fe485610eac565b830182610f8c565b50505b505050565b5f82821c905092915050565b5f61100f5f1984600802610ff4565b1980831691505092915050565b5f6110278383611000565b9150826002028217905092915050565b611040826108a3565b67ffffffffffffffff81111561105957611058610971565b5b6110638254610ddc565b61106e828285610fae565b5f60209050601f83116001811461109f575f841561108d578287015190505b611097858261101c565b8655506110fe565b601f1984166110ad86610e9a565b5f5b828110156110d4578489015182556001820191506020850194506020810190506110af565b868310156110f157848901516110ed601f891682611000565b8355505b6001600288020188555050505b505050505050565b7f456c656374696f6e207374696c6c206f6e676f696e67000000000000000000005f82015250565b5f61113a6016836108ad565b915061114582611106565b602082019050919050565b5f6020820190508181035f8301526111678161112e565b905091905056fea2646970667358221220ffca0b31e8725265b2822630c64b0f20999d611dadfb6a7bf4cd7a19a49645ff64736f6c63430008150033",
  "immutableReferences": {},
  "source": "// SPDX-License-Identifier: MIT\r\npragma solidity ^0.8.0;\r\n\r\ncontract Voting {\r\n    struct Candidate {\r\n        uint id;\r\n        string name;\r\n        uint voteCount;\r\n    }\r\n\r\n    address public electionOfficial;\r\n    bool public electionEnded = false;\r\n    uint public candidatesCount;\r\n\r\n    mapping(uint => Candidate) public candidates;\r\n    mapping(address => bool) public voters;\r\n\r\n    event Voted(address voter, uint candidateId);\r\n    event ElectionEnded();\r\n\r\n    modifier onlyOfficial() {\r\n        require(msg.sender == electionOfficial, \"Only election official can perform this action\");\r\n        _;\r\n    }\r\n\r\n    modifier electionOngoing() {\r\n        require(!electionEnded, \"Election has ended\");\r\n        _;\r\n    }\r\n\r\n    constructor() {\r\n        electionOfficial = msg.sender;\r\n    }\r\n\r\n    function addCandidate(string memory name) public onlyOfficial electionOngoing {\r\n        candidatesCount++;\r\n        candidates[candidatesCount] = Candidate(candidatesCount, name, 0);\r\n    }\r\n\r\n    function vote(uint candidateId) public electionOngoing {\r\n        require(!voters[msg.sender], \"Already voted\");\r\n        require(candidateId > 0 && candidateId <= candidatesCount, \"Invalid candidate\");\r\n\r\n        voters[msg.sender] = true;\r\n        candidates[candidateId].voteCount++;\r\n\r\n        emit Voted(msg.sender, candidateId);\r\n    }\r\n\r\n    function endElection() public onlyOfficial {\r\n        electionEnded = true;\r\n        emit ElectionEnded();\r\n    }\r\n\r\n    function getWinner() public view returns (string memory) {\r\n        require(electionEnded, \"Election still ongoing\");\r\n\r\n        uint maxVotes = 0;\r\n        uint winnerId;\r\n        for (uint i = 1; i <= candidatesCount; i++) {\r\n            if (candidates[i].voteCount > maxVotes) {\r\n                maxVotes = candidates[i].voteCount;\r\n                winnerId = i;\r\n            }\r\n        }\r\n        return candidates[winnerId].name;\r\n    }\r\n}\r\n",
  "sourcePath": "C:\\Users\\Prabhakar Kumar\\OneDrive - Amity University\\Desktop\\E-voting\\contracts\\evoting.sol",
  "compiler": {
    "name": "solc",
    "version": "0.8.21+commit.d9974bed.Emscripten.clang"
  },
  "schemaVersion": "3.4.16",
  "updatedAt": "2024-11-13T14:14:34.167Z",
  "devdoc": {
    "kind": "dev",
    "methods": {},
    "version": 1
  },
  "userdoc": {
    "kind": "user",
    "methods": {},
    "version": 1
  }
}